{
    "contractName": "Shopping",
    "abi": [
        {
            "inputs": [],
            "stateMutability": "nonpayable",
            "type": "constructor"
        },
        {
            "anonymous": false,
            "inputs": [
                {
                    "indexed": false,
                    "internalType": "address",
                    "name": "_buyer",
                    "type": "address"
                },
                {
                    "indexed": false,
                    "internalType": "uint256",
                    "name": "_newOrderId",
                    "type": "uint256"
                },
                {
                    "indexed": false,
                    "internalType": "string",
                    "name": "_message",
                    "type": "string"
                }
            ],
            "name": "Payed",
            "type": "event"
        },
        {
            "inputs": [],
            "name": "getMyOrders",
            "outputs": [
                {
                    "components": [
                        {
                            "internalType": "uint256",
                            "name": "id",
                            "type": "uint256"
                        },
                        {
                            "internalType": "string[]",
                            "name": "productsId",
                            "type": "string[]"
                        },
                        {
                            "internalType": "uint256",
                            "name": "totalPrice",
                            "type": "uint256"
                        },
                        {
                            "internalType": "address payable",
                            "name": "buyer",
                            "type": "address"
                        },
                        {
                            "internalType": "enum Shopping.Status",
                            "name": "status",
                            "type": "uint8"
                        },
                        {
                            "internalType": "bool",
                            "name": "paid",
                            "type": "bool"
                        }
                    ],
                    "internalType": "struct Shopping.Order[]",
                    "name": "",
                    "type": "tuple[]"
                }
            ],
            "stateMutability": "view",
            "type": "function"
        },
        {
            "inputs": [],
            "name": "getTotalBalance",
            "outputs": [
                {
                    "internalType": "uint256",
                    "name": "",
                    "type": "uint256"
                }
            ],
            "stateMutability": "view",
            "type": "function"
        },
        {
            "inputs": [],
            "name": "owner",
            "outputs": [
                {
                    "internalType": "address payable",
                    "name": "",
                    "type": "address"
                }
            ],
            "stateMutability": "view",
            "type": "function"
        },
        {
            "inputs": [
                {
                    "internalType": "string[]",
                    "name": "_productsId",
                    "type": "string[]"
                },
                {
                    "internalType": "uint256",
                    "name": "_price",
                    "type": "uint256"
                }
            ],
            "name": "pay",
            "outputs": [],
            "stateMutability": "payable",
            "type": "function"
        }
    ],
    "bytecode": "608060405234801561001057600080fd5b50600080546001600160a01b03191633179055610a8c806100326000396000f3fe60806040526004361061003f5760003560e01c806312b58349146100445780638da5cb5b14610064578063a89b2da91461009c578063bab5933a146100b1575b600080fd5b34801561005057600080fd5b506040514781526020015b60405180910390f35b34801561007057600080fd5b50600054610084906001600160a01b031681565b6040516001600160a01b03909116815260200161005b565b6100af6100aa36600461063d565b6100d3565b005b3480156100bd57600080fd5b506100c6610379565b60405161005b9190610793565b600054336001600160a01b03909116036101405760405162461bcd60e51b815260206004820152602360248201527f4f6e6c7920637573746f6d6572732063616e2070617920666f722070726f647560448201526263747360e81b60648201526084015b60405180910390fd5b80803410156101b75760405162461bcd60e51b815260206004820152603d60248201527f54686520707269636520666f72207468652070726f647563747320646f65732060448201527f6e6f74206d617463682074686520616d6f756e7420796f752073656e740000006064820152608401610137565b60006101c383346108e1565b905080156101fa57604051339082156108fc029083906000818181858888f193505050501580156101f8573d6000803e3d6000fd5b505b336000908152600160208190526040822054610215916108fa565b336000818152600160208181526040808420815160c0810183528781528084018d81529281018c905260608101969096526080860185905260a0860184905280548085018255908552938290208551600490950201938455518051959650939492936102879392850192910190610531565b506040820151600282015560608201516003820180546001600160a01b039092166001600160a01b03198316811782556080850151926001600160a81b03191617600160a01b8360048111156102df576102df61075b565b021790555060a09182015160039091018054911515600160a81b0260ff60a81b19909216919091179055604080513381526020810184905260609181018290526016918101919091527514185e5b595b9d081dd85cc81cdd58d8d95cdcd99d5b60521b60808201527f5d5b51d9f1ed194a44bd28f05239eb300d91022bd6d466df5018126c6c02541b910160405180910390a15050505050565b336000908152600160209081526040808320805482518185028101850190935280835260609492939192909184015b8282101561052857838290600052602060002090600402016040518060c00160405290816000820154815260200160018201805480602002602001604051908101604052809291908181526020016000905b828210156104a65783829060005260206000200180546104199061090d565b80601f01602080910402602001604051908101604052809291908181526020018280546104459061090d565b80156104925780601f1061046757610100808354040283529160200191610492565b820191906000526020600020905b81548152906001019060200180831161047557829003601f168201915b5050505050815260200190600101906103fa565b505050908252506002820154602082015260038201546001600160a01b0381166040830152606090910190600160a01b900460ff1660048111156104ec576104ec61075b565b60048111156104fd576104fd61075b565b81526003919091015460ff600160a81b909104161515602091820152908252600190920191016103a8565b50505050905090565b828054828255906000526020600020908101928215610577579160200282015b8281111561057757825182906105679082610996565b5091602001919060010190610551565b50610583929150610587565b5090565b8082111561058357600061059b82826105a4565b50600101610587565b5080546105b09061090d565b6000825580601f106105c0575050565b601f0160209004906000526020600020908101906105de91906105e1565b50565b5b8082111561058357600081556001016105e2565b634e487b7160e01b600052604160045260246000fd5b604051601f8201601f1916810167ffffffffffffffff81118282101715610635576106356105f6565b604052919050565b600080604080848603121561065157600080fd5b833567ffffffffffffffff8082111561066957600080fd5b8186019150601f878184011261067e57600080fd5b8235602083821115610692576106926105f6565b8160051b6106a182820161060c565b928352858101820192828101908c8511156106bb57600080fd5b83880192505b84831015610748578235878111156106d95760008081fd5b8801603f81018e136106eb5760008081fd5b84810135888111156106ff576106ff6105f6565b610710818901601f1916870161060c565b8181528f8c8385010111156107255760008081fd5b818c840188830137600091810187019190915283525091830191908301906106c1565b9c9a909201359a50505050505050505050565b634e487b7160e01b600052602160045260246000fd5b6005811061078f57634e487b7160e01b600052602160045260246000fd5b9052565b6000602080830181845280855180835260408601915060408160051b870101925083870160005b828110156108be57878503603f190184528151805186528681015160c0888801819052815190880181905260e080890192600583901b8a0190910191908a019060005b8181101561085d578a840360df190185528251805180865260005b81811015610836578e81840101518f82890101528e81019050610818565b5060008682018f0152958d0195601f01601f19169094018c019350918b01916001016107fd565b505050604083015160408901526060915081830151610886838a01826001600160a01b03169052565b50608091508183015161089b838a0182610771565b5060a09283015115159790920196909652945092850192908501906001016107ba565b5092979650505050505050565b634e487b7160e01b600052601160045260246000fd5b818103818111156108f4576108f46108cb565b92915050565b808201808211156108f4576108f46108cb565b600181811c9082168061092157607f821691505b60208210810361094157634e487b7160e01b600052602260045260246000fd5b50919050565b601f82111561099157600081815260208120601f850160051c8101602086101561096e5750805b601f850160051c820191505b8181101561098d5782815560010161097a565b5050505b505050565b815167ffffffffffffffff8111156109b0576109b06105f6565b6109c4816109be845461090d565b84610947565b602080601f8311600181146109f957600084156109e15750858301515b600019600386901b1c1916600185901b17855561098d565b600085815260208120601f198616915b82811015610a2857888601518255948401946001909101908401610a09565b5085821015610a465787850151600019600388901b60f8161c191681555b5050505050600190811b0190555056fea2646970667358221220c692179a2537479a2470f279aeaea8d89914fc2ab0b9987db4c790a7f24bc5b264736f6c63430008130033",
    "sourcePath": "c:/Users/chkol/OneDrive/Робочий стіл/shop/client/contracts/Shopping.sol",
    "compiler": {
        "name": "solc",
        "version": "0.8.19+commit.7dd6d404"
    },
    "functionHashes": {
        "getMyOrders()": "bab5933a",
        "getTotalBalance()": "12b58349",
        "owner()": "8da5cb5b",
        "pay(string[],uint256)": "a89b2da9"
    },
    "gasEstimates": {
        "creation": {
            "codeDepositCost": "540000",
            "executionCost": "24810",
            "totalCost": "564810"
        },
        "external": {
            "getMyOrders()": "infinite",
            "getTotalBalance()": "146",
            "owner()": "2337",
            "pay(string[],uint256)": "infinite"
        }
    }
}